:100000000EC020C01FC01EC01DC01CC01BC01AC017
:1000100019C018C017C016C015C014C013C01124D1
:100020001FBECFE5D2E0DEBFCDBF10E0A0E6B0E05E
:10003000EEECF3E002C005900D92A238B107D9F7BB
:1000400091D0C3C1DDCF20ED37E0815020F0F90120
:100050003197F1F7FACF089528E33AE4815020F080
:10006000F9013197F1F7FACF089584E6F5CF1CBA7C
:1000700090E09FBB8EBB6DBBE29AE19AE199FECF07
:100080000895CF9363FF05C0883018F497E0981B5C
:10009000892F242F30E03FBB2EBB90E19CBBE29A1E
:1000A000E19AE199FECF4F5FC42FCD7F682F609515
:1000B0008C2FDDDF8C2FCF910895682F8EEFD7CF57
:1000C000682F60958FEFD3CF369A3699FECF85B1E2
:1000D00008951F93CF93DF93C82FD62F142F19BCE9
:1000E000CC2351F018BD8D2FB7DF18BC8D2FB4DF96
:1000F0008D2FB2DFC150F4CFDF91CF911F910895C2
:1001000085B7877E806185BF18BC19BC85B78062C2
:1001100085BF889585B78F7D85BF08951F93CF9341
:10012000DF93A29A8FEA87B986EC86B93699FECF1B
:1001300010E1C0E0D0E0C8DFC80FD11D1150D9F7E1
:10014000CE0124E0969587952A95E1F7DF91CF912E
:100150001F910895A29A81EA87B986EC86B93699EB
:10016000FECFB2CFA39A83EA87B986EC86B93699D7
:10017000FECFAADF182FB99AB89A81EA8ABD81E02A
:1001800083BFBB9AC39AE6DFC82F893738F44EE1A4
:1001900065E083E09EDFC13708F4B2DF8EEF90E0C8
:1001A0009FBB8EBBE09ADDB28EE48D1510F08FE41C
:1001B000D82E8FEF90E09FBB8EBBE09ADDB3D09539
:1001C000D7FD03C080E97CDFD0E9D4FF02C022E084
:1001D00001C021E080E090E09FBB8EBBE09ACDB3F0
:1001E000C09521F401968E3F9105B1F79D2F917036
:1001F000103A20F0163E58F4D5FD09C01092830045
:10020000D1FD02C0CD2FC470109282002BC080910E
:100210008200882311F0D6FD25C0163E80F491118E
:100220000EC08D2F8470CD3010F0C82F20C0C8179D
:10023000B9F0C83010F4C21B1AC0CF5F18C080914B
:1002400083008F5F8F7180938300C20FC83010F0DE
:10025000CD2FC470D3FF06C087E08C1BC82F02C00F
:10026000C8E005C0992319F0C63008F0C5E040E0A9
:100270006D2F8C2F06DFF82E00E0E12C9D2F90745F
:10028000C92EBB24B39466DFA82E48DF90E79A15E9
:1002900010F48D1578F00F5F083068F0C73020F447
:1002A000C15019F42DDF01C0C6E04F2D6D2F8C2FEA
:1002B000E8DEF82E00E080918300803168F1D5DE21
:1002C0001092830011E0C1E04EE16CE0812F01DF6C
:1002D00085E0C2DEDC278D2FF3DE44E161E080E3C0
:1002E000F8DEDC278D2FECDEC0DECC0F1F5FC138BF
:1002F00058F34EE16CE088E0ECDE8FEFDEDE88EC58
:10030000ABDECFEFC8BD19BC09DFD7DEAEDE4FEFE5
:100310006CE082E0DEDEF6CFEC2FF0E0EC58FF4F31
:1003200010811E3FA0F41C3F40F51A3F01F11B3F16
:1003300051F54FEF6AE083E0CCDE84E18DDE4FEFD4
:1003400064E183E0C6DE4FEF6AE083E00EC01E3F4B
:10035000D1F480E0E82FF0E0E05AFF4F90819A1549
:1003600010F48F5FF7CF4EE16CE0B3DE29C04FEFA2
:100370006AE081E0AEDE8FEF6FDE4FEF62E084E097
:10038000A8DE1D3FF1F01F3F49F484E18E1530F4E3
:100390004F2D6D2F86E075DEF82EC6E08C2F90E095
:1003A000FC01EA59FF4F2081FC01EC58FF4F80818E
:1003B00088BD29BDCC2021F08FEF4EDEB0928200A7
:0E03C00054DEE394109283005ECFF894FFCFDA
:1003CE00798D9AA2AAFF03146EFFFFFFFF000000B3
:1003DE000000000000000007385A89FFFEFFFDFCF8
:0203EE00FBFA18
:00000001FF
