:1000000009C021C020C01FC01EC01DC01CC01BC015
:100010001AC019C011241FBECFE9CDBF10E0A0E661
:10002000B0E0E2E5F3E002C005900D92A638B1071A
:10003000D9F720E0A6E8B0E001C01D92A938B207C8
:10004000E1F764D084C1DCCF26EB33E0019708F4FC
:100050000895F9013197F1F7F9CF88EE93E0F4CFE5
:10006000CF93C091860091E09C0F9F739093860080
:10007000682F6295607F80916000682B6095892F62
:1000800090E058D16FEF8C2F90E0CF9153C1282F83
:1000900030E0F901E959FF4F90812A583F4FF901AB
:1000A000208129BD96BFDCCF0F931F93CF93DF93A1
:1000B000182F042FC62FD0E0111105C0DF91CF916A
:1000C0001F910F91089509BD16BECE01BDDF19BC69
:1000D00016BECE01B9DFCE01B7DF1150EDCF369A93
:1000E0003699FECF85B108954EE162E383E0DCDF0F
:1000F00019BC16BE85B7877E806185BF85B78062D3
:1001000085BF889585B78F7D85BF0895A39A83E6BF
:1001100087B986EC86B93699FECF369A3699FECFE6
:10012000D5B1B99AB89A81EA8FBD81E083BF1092A8
:100130008600C0918600C03418F184E020916000F0
:1001400020FD28C094E0909388009AE09093870067
:1001500022FD25C0C091880091E0D73E20F120917A
:1001600089002F5F2F7120938900890F909187005C
:10017000981778F190918800891758F1C82F29C0F5
:100180008C2F90E0D0D0809509F0C6C0CF5FC0938F
:100190008600CFCF9BE0909388009EE0D7CFC091A0
:1001A00087009FEFDACF10928900D13A08F47BC024
:1001B00023FF79C0833069F020918700281708F465
:1001C0006DC0C0918800C81708F068C0891B281747
:1001D000A8F68C2F45DFBB9AC39AA29A81E687B90D
:1001E00086EC86B97CDF813708F062C07DDFD0E025
:1001F000E12C75DFD82EEC2FF0E0EA58FF4F10818C
:1002000080918900803130F128DF10928900C091FF
:10021000880001E0FF24F3944EE16CE7802F44DF77
:1002200082E390E011DF809160008F258093600071
:100230008C2F16DF44E16FE080E336DF80916000B1
:100240008F25809360008C2F0BDF07DFFF0C0F5F83
:10025000053011F784E0810F823090F54FEF69E1AE
:1002600084E022DF1C3F21F419BC8FEF86BFF5DE4E
:1002700080E78D1508F44CC0DF5FD83008F449C022
:10028000D0918800EC2FF0E0E958FF4FDC17B0F573
:100290008291811131C0DFEFDC0F37C0833030F441
:1002A000C1E0C80F96CF21FF94CF68CFC0E091CFB7
:1002B0008D3808F09CCF4EE162E382E0F5DE97CF07
:1002C0001E3F71F480E0E82FF0E0EF59FF4F90817E
:1002D0009D1520F04EE16CE7E7DEC9CF8F5FF3CFCD
:1002E000E3948CE38E1528F41F3F19F4C091870026
:1002F000C2508C2FCCDEBBCFC150C8CFCD1728F059
:10030000CD13C9CF8D2FC3DEEFDE8D2FC0DECD2FF5
:10031000D0E0109289006DCF982F9F70909360006D
:1003200082958F700BCFE199FECF8EBBE09A992713
:100330008DB30895262FE199FECF1CBA8EBB2DBB3D
:100340000FB6F894E29AE19A0FBE01960895F894D8
:02035000FFCFDD
:1003520008798D9AA2AAFF0000000003146EFFFF25
:10036200FF00036EFF00FFFDFEFC0000000738895E
:06037200FF00005AFF002D
:00000001FF
