:100000000EC028C027C026C025C024C023C022C0DF
:1000100021C020C01FC01EC01DC01CC01BC0112499
:100020001FBECFE5D2E0DEBFCDBF10E0A0E6B0E05E
:10003000EAE6F3E002C005900D92A638B107D9F7C1
:1000400020E0A6E8B0E001C01D92AA38B207E1F7AF
:1000500069D089C1D5CF20ED37E0019708F4089524
:10006000F9013197F1F7F9CF88EE93E0F4CFCF9310
:10007000DF93C0918600D09187009E012F5F3F4F94
:1000800031703093870020938600682F6295607FDF
:1000900080916000682B6095C90157D16FEFCE0148
:1000A000DF91CF9152C1282F30E0F901E959FF4F7C
:1000B00090812A583F4FF901208128BD99BDD7CFA3
:1000C0000F931F93CF93DF93182F042FC62FD0E0E9
:1000D000111105C0DF91CF911F910F91089508BDB7
:1000E00019BCCE01B8DF18BC19BCCE01B4DFCE01FB
:1000F000B2DF1150EDCF369A3699FECF85B1089513
:100100004EE162E382E0DCDF18BC19BC85B7877E74
:10011000806185BF85B7806285BF889585B78F7DF3
:1001200085BF0895A39A83EA87B986EC86B9369984
:10013000FECF369A3699FECF15B1B99AB89A81EAB0
:100140008ABD81E083BF1092870010928600C09123
:100150008600D0918700C11582E0D80718F184E0AD
:100160002091600020FD29C094E0909389009AE0DE
:100170009093880022FD26C0C091890091E0173E2F
:1001800028F120918A002F5F2F7120938A00890F18
:1001900090918800981780F190918900891760F1FB
:1001A000C82F2AC0CE01C9D0809509F0BFC02196C2
:1001B000D0938700C0938600CACF9BE090938900BC
:1001C0009EE0D6CFC09188009FEFD9CF10928A00D1
:1001D000113A08F47AC023FF78C0833069F0209187
:1001E0008800281708F46CC0C0918900C81708F06F
:1001F00067C0891B2817A0F68C2F39DFBB9AC39ADA
:10020000A29A81EA87B986EC86B975DF813708F44E
:1002100077DFD0E0E12C6FDFD82EEC2FF0E0EA584A
:10022000FF4F108180918A00803130F11DDF1092E4
:100230008A00C091890001E0FF24F3944EE16CE74D
:10024000802F3EDF82E390E006DF809160008F2503
:10025000809360008C2F0BDF44E16FE080E330DFA0
:10026000809160008F25809360008C2F00DFFCDE82
:10027000FF0C0F5F053011F784E0810F823050F5DD
:100280004FEF69E184E01CDF1C3F21F418BC8FEFC5
:1002900089BDEADE80E78D1508F444C0DF5FD83001
:1002A00008F441C0D0918900EC2FF0E0E958FF4FED
:1002B000DC1770F58291811129C0DFEFDC0F2FC0B0
:1002C000833030F4C1E0C80F97CF21FF95CF68CFBE
:1002D000C0E092CF1E3F71F480E0E82FF0E0EF59CC
:1002E000FF4F90819D1520F04EE16CE7E9DED1CF04
:1002F0008F5FF3CFE3948CE38E1528F41F3F19F43E
:10030000C0918800C2508C2FCEDEC3CFC150D0CF59
:10031000CD1728F0CD13D1CF8D2FC5DEF1DE8D2F77
:10032000C2DECD2FD0E010928A0075CF982F9F703B
:100330009093600082958F7013CFE199FECF9FBBA1
:100340008EBBE09A99278DB30895262FE199FECFB1
:100350001CBA9FBB8EBB2DBB0FB6F894E29AE19AF4
:0A0360000FBE01960895F894FFCF38
:10036A0008798D9AA2AAFF0000000003146EFFFF0D
:10037A00FF00036EFF00FFFDFEFC00000007388946
:06038A00FF00005AFF0015
:00000001FF
