:1000000009C021C020C01FC01EC01DC01CC01BC015
:100010001AC019C011241FBECFE9CDBF10E0A0E661
:10002000B0E0E2EEF2E002C005900D92A638B10712
:10003000D9F720E0A6E8B0E001C01D92A938B207C8
:10004000E1F74DD04CC1DCCF26EB33E0019708F44B
:100050000895F9013197F1F7F9CF88EE93E0F4CFE5
:10006000CF93C091860091E09C0F9F739093860080
:10007000682F6295607F80916000682B6095892F62
:1000800090E020D16FEF8C2F90E0CF911BC1282FF3
:1000900030E0F901E959FF4F90812A583F4FF901AB
:1000A000208129BD96BFDCCF0F931F93CF93DF93A1
:1000B000182F042FC62FD0E0111105C0DF91CF916A
:1000C0001F910F91089509BD16BECE01BDDF19BC69
:1000D00016BECE01B9DFCE01B7DF1150EDCFA39A26
:1000E00083E687B986EC86B93699FECF369A36997B
:1000F000FECFD5B1B99AB89A81EA8FBD81E083BFAE
:1001000010928600C0918600C03418F184E02091DE
:10011000600020FD28C094E0909388009AE09093BE
:10012000870022FD25C0C091880091E0D73E20F1D4
:10013000209189002F5F2F7120938900890F909162
:100140008700981700F1909188008917E0F0C82F78
:100150001AC08C2F90E0AFD0809509F0A5C0CF5F7A
:10016000C0938600CFCF9BE0909388009EE0D7CFCE
:10017000C09187009FEFDACF10928900D13A08F43E
:1001800061C023FF5FC08C2F6BDFBB9AC39AA29A1A
:1001900081E687B986EC86B9D0E0E12C369A3699AB
:1001A000FECFD5B0EC2FF0E0EA58FF4F10818091E0
:1001B0008900803130F151DF10928900C0918800B0
:1001C00001E0FF24F3944EE16CE7802F6DDF82E3C2
:1001D00090E03ADF809160008F25809360008C2F43
:1001E0003FDF44E16FE080E35FDF809160008F25B7
:1001F000809360008C2F34DF30DFFF0C0F5F053001
:1002000011F784E0810F823000F54FEF69E184E05F
:100210004BDF1C3F21F419BC8FEF86BF1EDF80E748
:100220008D1560F0DF5FD83050F090918800C917CD
:1002300040F5C0918700C2508C2F29DFD0E010928A
:100240008900ACCF21FF9FCF82CF1E3F71F480E0A9
:10025000E82FF0E0EF59FF4F90819D1520F04EE11F
:100260006CE722DFDBCF8F5FF3CFE3948CE38E1557
:1002700028F41F3F19F4C0918700C1508C2F07DF6D
:10028000CDCF9C1710F4C150D7CF19BC16BE85B77F
:10029000877E806185BF85B7806285BF889585B779
:1002A0008F7D85BFC92FC8CF982F9F709093600016
:1002B00082958F702CCFE199FECF8EBBE09A992763
:1002C0008DB30895262FE199FECF1CBA8EBB2DBBAE
:1002D0000FB6F894E29AE19A0FBE01960895F89449
:0202E000FFCF4E
:1002E20008798D9AA2AAFF0000000003146EFFFF96
:1002F200FF00036EFF00FFFDFEFC000000073889CF
:06030200FF00005AFF009D
:00000001FF
