:100000000EC028C027C026C025C024C023C022C0DF
:1000100021C020C01FC01EC01DC01CC01BC0112499
:100020001FBECFE5D2E0DEBFCDBF10E0A0E6B0E05E
:10003000E2E8F3E002C005900D92A638B107D9F7C7
:1000400020E0A6E8B0E001C01D92AA38B207E1F7AF
:1000500070D095C1D5CF20ED37E0019708F4089511
:10006000F9013197F1F7F9CF88EE93E0F4CFCF9310
:10007000DF93C0918600D09187009E012F5F3F4F94
:100080002F7731703093870020938600682F629518
:10009000607F80916000682B6095C90162D16FEF2D
:1000A000CE01DF91CF915DC1A29A81EA87B986EC3A
:1000B00086B90895282F30E0F901E959FF4F908162
:1000C0002A583F4FF901208128BD99BDD0CF0F9309
:1000D0001F93CF93DF93182F042FC62FD0E0111159
:1000E00005C0DF91CF911F910F91089508BD19BCF4
:1000F000CE01B1DF18BC19BCCE01ADDFCE01ABDF44
:100100001150EDCF369A3699FECF85B108954EE164
:1001100062E383E0DCDF18BC19BC85B7877E8061B1
:1001200085BF85B7806285BF889585B78F7D85BF80
:100130000895A39A83EA87B986EC86B93699FECFEB
:10014000369A3699FECF15B1B99AB89A81EA8ABD26
:1001500081E083BF1092870010928600C0918600D4
:10016000D0918700C03881E0D80718F184E0209151
:10017000600020FD29C094E0909389009AE090935C
:10018000880022FD26C0C091890091E0173E28F129
:1001900020918A002F5F2F7120938A00890F909100
:1001A0008800981780F190918900891760F1C82F15
:1001B0002AC0CE01CED0809509F0C4C02196D0933C
:1001C0008700C0938600CACF9BE0909389009EE091
:1001D000D6CFC09188009FEFD9CF10928A00113AF4
:1001E00008F477C023FF75C0833069F02091880040
:1001F000281708F469C0C0918900C81708F064C0C6
:10020000891B2817A0F68C2F32DFBB9AC39A4CDFCC
:1002100079DF813708F062C07ADFD0E0E12C72DF4D
:10022000D82EEC2FF0E0EA58FF4F108180918A0021
:10023000803130F119DF10928A00C091890001E00D
:10024000FF24F3944EE16CE7802F41DF82E390E0DE
:1002500002DF809160008F25809360008C2F07DF84
:1002600044E16FE080E333DF809160008F2580936D
:1002700060008C2FFCDEF8DEFF0C0F5F053011F7FD
:1002800084E0810F823090F54FEF69E184E01FDF59
:100290001C3F21F418BC8FEF89BDE6DE80E78D1589
:1002A00008F44CC0DF5FDF3008F449C0D09189000A
:1002B000EC2FF0E0E958FF4FDC17B0F58291811187
:1002C00031C0DFEFDC0F37C0833030F4C1E0C80F3E
:1002D0009ACF21FF98CF6BCFC0E095CF893708F038
:1002E0009CCF4EE162E382E0F2DE97CF1E3F71F4D5
:1002F00080E0E82FF0E0EF59FF4F90819D1520F04E
:100300004EE16CE7E4DEC9CF8F5FF3CFE3948CE37B
:100310008E1528F41F3F19F4C0918800C2508C2F0D
:10032000C9DEBBCFC150C8CFCD1728F0CD13C9CF80
:100330008D2FC0DEECDE8D2FBDDECD2FD0E01092F4
:100340008A006DCF982F9F709093600082958F7078
:100350000ECFE199FECF9FBB8EBBE09A99278DB35C
:100360000895262FE199FECF1CBA9FBB8EBB2DBBF3
:100370000FB6F894E29AE19A0FBE01960895F894A8
:02038000FFCFAD
:1003820008798D9AA2AAFF0000000003146EFFFFF5
:10039200FF00036EFF00FFFDFEFC0000000738892E
:0603A200FF00005AFF00FD
:00000001FF
