:100000000EC028C027C026C025C024C023C022C0DF
:1000100021C020C01FC01EC01DC01CC01BC0112499
:100020001FBECFE5D2E0DEBFCDBF10E0A0E6B0E05E
:10003000EEE5F3E002C005900D92A038B107D9F7C4
:1000400020E0A0E8B0E001C01D92A238B207E1F7BD
:100050006DD083C1D5CF20E23EE4815020F0F9017C
:100060003197F1F7FACF089584E6F5CF1CBA8EBB2D
:100070006DBBE29AE19AE199FECF0895CF93DF93A9
:10008000982FC0918000D091810062FF05C0883018
:1000900018F487E0891B982F9E012F5F3F4F2D7F1B
:1000A00031703093810020938000692F6095C901E1
:1000B000DDDF6FEFCE01DF91CF91D8CF682F609554
:1000C0008FEF91E0D3CF369A3699FECF85B1089560
:1000D0001F93CF93DF93C82FD62F142FCC2361F01B
:1000E00018BD19BC8D2FB7DF18BC19BC8D2FB3DF1D
:1000F0008D2FB1DFC150F2CFDF91CF911F910895C5
:1001000018BC19BC85B7877E806185BF85B78062C2
:1001100085BF889585B78F7D85BF0895A29A81EAAE
:1001200087B986EC86B93699FECFCDCFA39A83EAFC
:1001300087B986EC86B93699FECFC5DF182FB99AF4
:10014000B89A81EA8ABD81E083BFBB9AC39AE6DF91
:10015000C82F893738F44EE165E083E0B9DFC13755
:1001600008F4CEDF8FEF8EBBE09ADDB3D095D5FDDE
:1001700002C0D11103C081E8A1DFD1E8D0FD02C0E7
:1001800091E001C092E010928100109280002091D5
:100190008000309181002E3F81E0380780F42EBB33
:1001A000E09ACDB3C09561F4209180003091810038
:1001B0002F5F3F4F3093810020938000E8CFC0E055
:1001C000103A20F0163E48F4D3FD07C01092830089
:1001D000D1FFC0E01092820029C080918200882364
:1001E00011F0D4FD23C0163E70F4CC30E1F08FEF57
:1001F0008C0F873020F4C91BCD30C0F014C0C8303C
:10020000A0F0C90F13C0809183008F5F8F7180931E
:100210008300C90FC83008F0C0E0D2FF07C087E0F4
:100220008C1BC82F03C0C0E001C0C8E06D2F8C2F0D
:1002300025DF00E0E12C72DFD82E80E78D15B8F0C5
:100240000F5F0830A8F01FEF1C0FC83010F0C12F4F
:10025000FACFEC2FF0E0ED58FF4F80818111F7CFFE
:10026000C11101C04DDFC12F6D2F812F07DF00E0CD
:10027000EC2FF0E0ED58FF4F10818091830080312A
:10028000E0F0F2DE10928300C1E0FF24F3944EE12F
:100290006CE08C2F1DDF82E3DEDEDF258D2F0EDF8D
:1002A00044E161E080E314DFDF258D2F07DFDCDE32
:1002B000FF0CCF5FC73059F7C0E01E3F90F41C3FE2
:1002C00000F51B3F21F54FEF6AE083E001DF84E199
:1002D000C2DE4FEF64E183E0FBDE4FEF6AE083E0D4
:1002E0000EC01E3FA1F480E0E82FF0E0E05AFF4F7F
:1002F00090819D1510F48F5FF7CF4EE16CE0E8DE42
:1003000028C04FEF62E084E0E3DE1D3F19F11F3F9C
:1003100041F4E39484E18E1520F46D2F86E0AEDE87
:10032000C6E08C2F90E0FC01EA59FF4F2081FC01D0
:10033000ED58FF4F808188BD29BD809182008130BA
:1003400041F0D4FF06C090DE8FDE8EDE81E0809328
:0E03500082008ADE109283006ECFF894FFCFF9
:10035E00798D9AA2AAFF03146EFFFFFFFF00000023
:10036E0000000000000007385A89FFFEFFFDFCFB6D
:00000001FF
