:100000000EC028C027C026C025C024C023C022C0DF
:1000100021C020C01FC01EC01DC01CC01BC0112499
:100020001FBECFE5D2E0DEBFCDBF10E0A0E6B0E05E
:10003000E0E3F3E002C005900D92A038B107D9F7D4
:1000400020E0A0E8B0E001C01D92A238B207E1F7BD
:100050006AD06CC1D5CF20E23EE4815020F0F90196
:100060003197F1F7FACF089584E6F5CF1CBA8EBB2D
:100070006DBBE29AE19AE199FECF0895CF93C82F24
:1000800062FF05C0883018F487E08C1BC82F6FEF23
:100090008091800090918100E9DF809180009091B3
:1000A000810001968D7F91709093810080938000F4
:1000B0006C2F6095CF91DACF682F60958FEF91E02C
:1000C000D5CF369A3699FECF85B108951F93CF9339
:1000D000DF93C82FD62F142F19BCCC2351F018BD95
:1000E0008D2FB9DF18BC8D2FB6DF8D2FB4DFC15037
:1000F000F4CFDF91CF911F91089585B7877E8061FE
:1001000085BF18BC19BC85B7806285BF889585B747
:100110008F7D85BF0895A29A81EA87B986EC86B95A
:100120003699FECFCECFA39A83EA87B986EC86B9FB
:100130003699FECFC6DF182FB99AB89A81EA8ABDE0
:1001400081E083BFBB9AC39AE6DFC82F893738F4B2
:100150004EE165E083E0BADFC13708F4CEDF8FEF10
:100160008EBBE09ADDB3D095D5FD02C0D11103C09E
:1001700081E8A2DFD1E8D0FF02C092E001C091E0A7
:1001800010928100109280002091800030918100B7
:100190002E3F81E0380780F42EBBE09ACDB3C095A6
:1001A00061F420918000309181002F5F3F4F3093A8
:1001B000810020938000E8CFC0E0103A20F0163E86
:1001C00048F4D3FD07C010928300D1FFC0E0109225
:1001D000820025C080918200882311F0D4FD1FC0C9
:1001E000163E50F4CC30C0F4CC23C1F0C83010F42B
:1001F000C91B15C0C90F13C0809183008F5F8F7119
:1002000080938300C90FC83008F0C0E0D2FF07C058
:1002100087E08C1BC82F03C0C0E001C0C8E06D2F71
:100220008C2F2CDF00E0F12C76DFE82E80E78E1596
:1002300068F00F5F083058F0C73020F4C15019F44F
:100240005CDF01C0C6E06D2F8C2F18DF00E08091CD
:1002500083008031D8F008DF10928300C1E011E004
:100260004EE16CE08C2F32DF82E3F5DED1278D2F5B
:1002700023DF44E161E080E329DFD1278D2F1CDFFC
:10028000F3DE110FCF5FC73059F7C0E0EC2FF0E07D
:10029000ED58FF4F10811E3F90F41C3F00F51B3FAF
:1002A00021F54FEF6AE083E011DF84E1D4DE4FEF08
:1002B00064E183E00BDF4FEF6AE083E00EC01E3F96
:1002C000A1F480E0E82FF0E0E05AFF4F90819E1506
:1002D00010F48F5FF7CF4EE16CE0F8DE22C04FEFF5
:1002E00062E084E0F3DE1D3FE9F01F3F39F484E172
:1002F0008F1520F46D2F86E0C1DEC6E08C2F90E0D4
:10030000FC01EA59FF4F2081FC01ED58FF4F80812D
:1003100088BD29BDD4FF05C08FEF9DDE81E08093AD
:100320008200A2DEF394109283007ECFF894FFCF78
:10033000798D9AA2AAFF03146EFFFFFFFF00000051
:1003400000000000000007385A89FFFEFFFDFCFB9B
:00000001FF
