:100000000EC01EC01DC01CC01BC01AC019C018C025
:1000100017C016C015C014C013C012C011C01124DF
:100020001FBECFEDCDBF10E0A0E6B0E0E6EFF3E0FD
:1000300002C005900D92A238B107D9F796D0D9C168
:10004000DFCF20ED37E0815020F0F9013197F1F753
:10005000FACF089528E33AE4815020F0F90131976E
:10006000F1F7FACF089584E6F5CF1CBA90E09FBB74
:100070008EBB6DBBE29AE19AE199FECF0895CF93D2
:1000800063FF07C0883028F460FD03C097E0981B29
:10009000892F242F30E03FBB2EBB90E19CBBE29A1E
:1000A000E19AE199FECF4D3719F0C1E0C40F01C0CC
:1000B000C0E0682F60958C2FD8DF8C2FCF910895EA
:1000C000682F8EE7D2CF682F60958FE7CECF369A14
:1000D0003699FECF85B108951F93CF93DF93C82F34
:1000E000D62F142F19BCCC2351F018BD8D2FB2DFA1
:1000F00018BC8D2FAFDF8D2FADDFC150F4CFDF9156
:10010000CF911F91089585B7877E806185BF18BC08
:1001100019BC85B7806285BF889585B78F7D85BFFF
:1001200008951F93CF93DF93A29A8FEA87B986EC45
:1001300086B93699FECF10E1C0E0D0E0C8DFC80F25
:10014000D11D1150D9F7CE0124E0969587952A95B7
:10015000E1F7DF91CF911F910895A29A81EA87B9C3
:1001600086EC86B93699FECFB2CFA39A83EA87B9D7
:1001700086EC86B93699FECFAADF182FB99AB89ABD
:1001800081EA8ABD81E083BFBB9AC39AE6DFC82FAC
:10019000893738F44EE165E083E09EDFC13708F42B
:1001A000B2DFE199FECF8EE790E09FBB8EBBE09A75
:1001B000EDB28EE48E1510F08FE4E82EE199FECFBB
:1001C0008FE790E09FBB8EBBE09ADDB3D095D7FD63
:1001D00003C080E978DFD0E9D4FF02C082E001C02B
:1001E00081E020E030E0E199FECF3FBB2EBBE09AFA
:1001F000CDB3C09529F42F5F3F4F2D37310599F7C7
:100200002D2F2470103A20F0163E48F4D5FD07C07B
:1002100010928300D1FFC0E01092820025C090911F
:100220008200992311F0D6FD1FC0163E70F4D0FD58
:100230000CC0CD3010F0C0E017C0CC23A1F02223B9
:1002400009F4D1C08C13CFC00EC0909183009F5F82
:100250009F7190938300C80FC83068F7D0FF04C027
:10026000C63048F701C0C8E0222319F0C11101C00F
:10027000C82FD3FF07C0C83028F4D0FD03C087E0E3
:100280008C1BC82F40E06D2F8C2FF9DEF82E00E07C
:10029000D12C9D2F9074C92EBB24B3945EDFA82E61
:1002A00040DF90E79A1510F48E1588F00F5F083044
:1002B00078F0C11102C027DF02C0C73010F4C1506E
:1002C00001C0C6E04F2D6D2F8C2FD9DEF82E00E037
:1002D00080918300803168F1C6DE1092830011E0C6
:1002E000C1E04EE16CE0812FF7DE85E0B3DEDC2774
:1002F0008D2FE9DE44E161E080E3EEDEDC278D2F27
:10030000E2DEB1DECC0F1F5FC13858F34EE16CE086
:1003100088E0E2DE8FEFD4DE88EC9CDECFEFC8BD54
:1003200019BCFFDECDDE9FDE4FEF6CE082E0D4DE55
:10033000F6CFEC2FF0E0EC58FF4F10811E3FA0F4F9
:100340001C3F48F51A3F01F11B3F59F54FEF6AE09A
:1003500083E0C2DE84E17EDE4FEF64E183E0BCDE59
:100360004FEF6AE083E00EC01E3FD9F480E0E82F33
:10037000F0E0E05AFF4F90819A1510F48F5FF7CFAD
:100380004EE16CE0A9DE2AC04FEF6AE081E0A4DE16
:100390008FEF60DE24C04FEF62E084E09DDE1D3F02
:1003A000F1F01F3F49F484E18D1530F44F2D6D2F8E
:1003B00086E065DEF82EC6E08C2F90E0FC01EA595D
:1003C000FF4F2081FC01EC58FF4F808188BD29BD83
:1003D000CC2021F08FEF3EDEB092820044DED39439
:1003E000109283005BCFC83010F4C81B3DCFCF5FA5
:0603F0003BCFF894FFCFA3
:1003F600798D9AA2AAFF03146EFFFFFFFF0000008B
:100406000000000000000007385A89FFFEFFFDFCCF
:02041600FBFAEF
:00000001FF
