:100000000EC01EC01DC01CC01BC01AC019C018C025
:1000100017C016C015C014C013C012C011C01124DF
:100020001FBECFEDCDBF10E0A0E6B0E0E4ECF3E002
:1000300002C005900D92A238B107D9F7E5D0C0C132
:10004000DFCF20ED37E0815020F0F9013197F1F753
:10005000FACF089528E33AE4815020F0F90131976E
:10006000F1F7FACF089584E6F5CF1CBA90E09FBB74
:100070008EBB6DBBE29AE19AE199FECF0895E199BA
:10008000FECF90E09FBB8EBBE09A8DB3089590E0C9
:100090009FBB8EBB80E18CBBE29AE19AE199FECFD7
:1000A000089583FF07C0683028F480FD03C087E00F
:1000B000861B682F862F0895CF93DF93982F862F66
:1000C000C42F692FEEDFD82F8C2FE1DFCD3711F051
:1000D000CF5F01C0C0E06D2F60958C2FC6DF8C2FE5
:1000E000DF91CF910895682F60958FE7BECF94B3CD
:1000F00021E030E001C0220F8A95EAF7292B24BBCA
:10010000606A67B986EC86B93699FECF0895369A4B
:100110003699FECF85B1089588BD69BD08950F93C6
:100120001F93CF93DF931F92CDB7DD27182F062F94
:1001300019BC112361F048BD802F49838BDF18BCA7
:10014000802F88DF802F86DF11504981F2CF0F90FA
:10015000DF91CF911F910F91089585B7877E8061C0
:1001600085BF18BC19BC85B7806285BF889585B7E7
:100170008F7D85BF089586FF05C08FEF6BDF81E01F
:10018000809382000895B99AB89A81EA8ABD81E085
:1001900083BFBB9AC39A089563E083E0A8DFB7CF1B
:1001A00061E082E0A4DFB3CF8D3038F4882339F0EA
:1001B00062FF07C0841305C002C080E0089588E094
:1001C0000895883010F4841B08958F5F0895840F7C
:1001D000883020F460FF03C0863008F080E0089586
:1001E000CF93DF931F92CDB7DD27811104C08983A0
:1001F000B4DF898102C0873010F4815001C086E0ED
:100200000F90DF91CF910895C7DF082FBCDFC8DFC3
:10021000C82F893738F44EE165E083E080DFC137CD
:1002200008F49BDF8FE72BDFC82FC095C7FD03C005
:1002300080E959DFC0E9C4FF02C0D2E001C0D1E0CB
:1002400010E0812F1CDF809519F41F5F1D37C9F75F
:10025000023820F0023D48F4C5FD07C0109283002B
:10026000C1FF80E01092820017C090918200992314
:1002700011F0C6FD11C0023D30F4C0FD04C04D2F89
:100280006C2F92DF09C0909183009F5F9F719093C4
:1002900083004D2F6C2F9BDFC2FF03C0811101C073
:1002A0008D2F682F8C2FFDDED82F412F6C2F04DF70
:1002B000F82E00E0E12C74DFD82E80E78D1550F089
:1002C0000F5F083040F08D2F8BDFD82F4F2D6C2F14
:1002D000F3DEF82E00E0809183008031D8F0C3DE99
:1002E00010928300D1E011E04EE16CE08D2F17DF1A
:1002F00085E0B0DEC1278C2FF6DE44E161E080E3CB
:100300000EDFC1278C2FEFDEAEDE110FDF5FD9309D
:1003100059F7D0E0ED2FF0E0EC58FF4F10811E3F71
:10032000A0F41C3F48F51A3F01F11B3F59F54FEF70
:100330006AE083E0F4DE84E18DDE4FEF64E183E088
:10034000EEDE4FEF6AE083E00EC01E3FD9F480E09E
:10035000E82FF0E0E05AFF4F90819D1510F48F5F79
:10036000F7CF4EE16CE0DBDE26C04FEF6AE081E0C4
:10037000D6DE8FEF6FDE20C04FEF62E084E0CFDE8D
:100380001D3FD1F01F3F49F484E18E1530F44F2D0D
:100390006C2F86E091DEF82ED6E08D2F90E0FC01E8
:1003A000EA59FF4F2081FC01EC58FF4F808188BD46
:1003B00029BD8C2FE0DE57DEE394109283007BCFC3
:0403C000F894FFCFDF
:1003C400798D9AA2AAFF08146EFFFFFFFF000000B8
:1003D4000000000000000007385A89FFFEFFFDFC02
:0203E400FBFA22
:00000001FF
