:1000000009C019C018C017C016C015C014C013C04D
:1000100012C011C011241FBECFE9CDBF10E0A0E671
:10002000B0E0E6E1F3E002C005900D92A238B1071E
:10003000D9F763D06EC1E4CF2CE135E2815020F0D6
:10004000F9013197F1F7FACF089584E6F5CF1CBA9C
:100050008EBB6DBBE29AE19AE199FECF0895CF93F2
:10006000DF93D82FC42F63FF05C0883018F487E0D2
:100070008D1BD82F6FEF8C2FEADFCF5FCD736D2FE5
:1000800060958C2FE4DF8C2FDF91CF910895682F3E
:1000900060958FE3DCCF369A3699FECF85B108950F
:1000A0001F93CF93DF93C82FD62F142F16BECC23C8
:1000B00051F019BD8D2FC0DF19BC8D2FBDDF8D2FE5
:1000C000BBDFC150F4CFDF91CF911F91089585B769
:1000D000877E806185BF19BC16BE85B7806285BFEB
:1000E000889585B78F7D85BF0895A29A81E687B9E7
:1000F00086EC86B93699FECFCECFA39A83E687B930
:1001000086EC86B93699FECFC6DF182FB99AB89A11
:1001100081EA8FBD81E083BFBB9AC39AE6DFC82F17
:10012000893738F44EE165E083E0BADFC13708F47F
:10013000CEDF8FE38EBBE09ADDB3D095D7FD03C051
:1001400084E9A5DFD4E9D4FF02C092E001C091E0C8
:1001500080E08EBBE09ACDB3C09519F48F5F8E33EB
:10016000C1F72D2F2170103A20F0163E58F4D5FD1E
:1001700009C010928300D1FD02C0CD2FC47010922F
:1001800082002BC080918200882311F0D6FD25C00B
:10019000163E80F421110EC08D2F8470CD3010F0EA
:1001A000C82F20C0C817B9F0C83010F4C91B1AC036
:1001B000CF5F18C0809183008F5F8F718093830021
:1001C000C90FC83010F0CD2FC470D3FF06C087E030
:1001D0008C1BC82F02C0C8E005C0222319F0C6300E
:1001E00008F0C5E040E06D2F8C2F39DFF82E00E0DD
:1001F000E12C7BDFC82E80E78C1578F00F5F08308C
:1002000068F0C73020F4C15019F461DF01C0C6E0C6
:100210004F2D6D2F8C2F23DFF82E00E0809183006F
:100220008031E8F012DF10928300CD2FC470DD24FE
:10023000D39411E04EE16CE08D2D32DF85E0FCDEE1
:10024000D1278D2F24DF44E161E080E329DFD1272E
:100250008D2F1DDFFADE110FD394113858F3EC2FD8
:10026000F0E0EC58FF4F10811E3FA0F41C3F40F51A
:100270001A3F01F11B3F51F54FEF6AE083E010DFB9
:1002800084E1DADE4FEF64E183E00ADF4FEF6AE0FA
:1002900083E00EC01E3FD1F480E0E82FF0E0E05A8A
:1002A000FF4F90819C1510F48F5FF7CF4EE16CE00B
:1002B000F7DE2AC04FEF6AE081E0F2DE8FEFBCDEAE
:1002C0004FEF62E084E0ECDE1D3FF9F01F3F49F4A0
:1002D00084E18E1530F44F2D6D2F86E0C0DEF82EB0
:1002E000C6E08C2F90E0FC01EA59FF4F2081FC0111
:1002F000EC58FF4F808189BD26BFD6FF05C08FEF28
:100300009BDE81E080938200A0DEE3941092830064
:0603100070CFF894FFCF4E
:10031600798D9AA2AAFF03146EFFFFFFFF0000006B
:100326000000000000000007385A89FFFEFFFDFCB0
:02033600FBFAD0
:00000001FF
