:100000000EC020C01FC01EC01DC01CC01BC01AC017
:1000100019C018C017C016C015C014C013C01124D1
:100020001FBECFE5D2E0DEBFCDBF10E0A0E6B0E05E
:10003000E6EFF2E002C005900D92A038B107D9F7C3
:1000400063D057C1DDCF20E23EE4815020F0F901BA
:100050003197F1F7FACF089584E6F5CF1CBA8EBB3D
:100060006DBBE29AE19AE199FECF0895CF93DF93B9
:10007000D82FC42F62FF05C0883018F487E08D1B8D
:10008000D82F6FEF8C2FEADFCF5FCD7F6D2F60957C
:100090008C2FE4DF8C2FDF91CF910895682F60952E
:1000A0008FEFDCCF369A3699FECF85B108951F9336
:1000B000CF93DF93C82FD62F142F19BCCC2351F028
:1000C00018BD8D2FC0DF18BC8D2FBDDF8D2FBBDF7E
:1000D000C150F4CFDF91CF911F91089585B7877EEE
:1000E000806185BF18BC19BC85B7806285BF8895C3
:1000F00085B78F7D85BF0895A29A81EA87B986EC7E
:1001000086B93699FECFCECFA39A83EA87B986EC1B
:1001100086B93699FECFC6DF182FB99AB89A81EA08
:100120008ABD81E083BFBB9AC39AE6DFC82F8937B7
:1001300038F44EE165E083E0BADFC13708F4CEDF82
:100140008FEF8EBBE09ADDB3D095D5FD02C0D11103
:1001500003C081E8A3DFD1E8D0FF02C092E001C074
:1001600091E080E08EBBE09ACDB3C09519F48F5F2B
:100170008E3FC1F7103A20F0163E48F4D3FD07C079
:1001800010928100D1FFC0E01092800025C08091C4
:100190008000882311F0D4FD1FC0163E50F4CC30EF
:1001A000C0F4CC23C1F0C83010F4C91B15C0CF5F18
:1001B00013C0809181008F5F8F7180938100C90F80
:1001C000C83008F0C0E0D2FF07C087E08C1BC82F02
:1001D00003C0C0E001C0C8E040E06D2F8C2F46DFB7
:1001E000F82E00E0E12C88DFD82E80E78D1578F01E
:1001F0000F5F083068F0C73020F4C15019F46EDF8B
:1002000001C0C6E04F2D6D2F8C2F30DFF82E00E09F
:10021000809181008031D8F01FDF10928100C1E011
:1002200011E04EE16CE08C2F42DF82E30CDFD1273E
:100230008D2F34DF44E161E080E339DFD1278D2F5A
:100240002DDF0ADF110FCF5FC73059F7C0E0EC2F69
:10025000F0E0ED58FF4F10811E3F90F41C3F00F579
:100260001B3F21F54FEF6AE083E021DF84E1EBDE05
:100270004FEF64E183E01BDF4FEF6AE083E00EC0E5
:100280001E3FA1F480E0E82FF0E0E05AFF4F90819C
:100290009D1510F48F5FF7CF4EE16CE008DF24C0AE
:1002A0004FEF62E084E003DF1D3FF9F01F3F49F4A8
:1002B00084E18E1530F44F2D6D2F86E0D7DEF82EB9
:1002C000C6E08C2F90E0FC01EA59FF4F2081FC0131
:1002D000ED58FF4F808188BD29BDD4FF05C08FEF49
:1002E000B2DE81E080938000B7DEE394109281005B
:0602F0007ACFF894FFCF65
:1002F600798D9AA2AAFF03146EFFFFFFFF0000008C
:1003060000000000000007385A89FFFEFFFDFCFBD5
:00000001FF
