:1000000009C021C020C01FC01EC01DC01CC01BC015
:100010001AC019C011241FBECFE9CDBF10E0A0E661
:10002000B0E0E0E4F3E002C005900D92A638B1071D
:10003000D9F720E0A6E8B0E001C01D92A938B207C8
:10004000E1F764D07BC1DCCF26EB33E0019708F405
:100050000895F9013197F1F7F9CF88EE93E0F4CFE5
:10006000CF93C091860091E09C0F9F739093860080
:10007000682F6295607F80916000682B6095892F62
:1000800090E04FD16FEF8C2F90E0CF914AC1282F95
:1000900030E0F901E959FF4F90812A583F4FF901AB
:1000A000208129BD96BFDCCF0F931F93CF93DF93A1
:1000B000182F042FC62FD0E0111105C0DF91CF916A
:1000C0001F910F91089509BD16BECE01BDDF19BC69
:1000D00016BECE01B9DFCE01B7DF1150EDCF369A93
:1000E0003699FECF85B108954EE162E382E0DCDF10
:1000F00019BC16BE85B7877E806185BF85B78062D3
:1001000085BF889585B78F7D85BF0895A39A83E6BF
:1001100087B986EC86B93699FECF369A3699FECFE6
:10012000D5B1B99AB89A81EA8FBD81E083BF1092A8
:100130008600C0918600C03418F184E020916000F0
:1001400020FD28C094E0909388009AE09093870067
:1001500022FD25C0C091880091E0D73E20F120917A
:1001600089002F5F2F7120938900890F909187005C
:10017000981778F190918800891758F1C82F29C0F5
:100180008C2F90E0C7D0809509F0BDC0CF5FC093A1
:100190008600CFCF9BE0909388009EE0D7CFC091A0
:1001A00087009FEFDACF10928900D13A08F47AC025
:1001B00023FF78C0833069F020918700281708F466
:1001C0006CC0C0918800C81708F067C0891B281749
:1001D000A8F68C2F45DFBB9AC39AA29A81E687B90D
:1001E00086EC86B97CDF813708F47EDFD0E0E12C35
:1001F00076DFD82EEC2FF0E0EA58FF4F1081809187
:100200008900803130F129DF10928900C091880087
:1002100001E0FF24F3944EE16CE7802F45DF82E399
:1002200090E012DF809160008F25809360008C2F1A
:1002300017DF44E16FE080E337DF809160008F25B6
:10024000809360008C2F0CDF08DFFF0C0F5F053000
:1002500011F784E0810F823050F54FEF69E184E0BF
:1002600023DF1C3F21F419BC8FEF86BFF6DE80E749
:100270008D1508F444C0DF5FD83008F441C0D09138
:100280008800EC2FF0E0E958FF4FDC1770F5829101
:10029000811129C0DFEFDC0F2FC0833030F4C1E0C3
:1002A000C80F97CF21FF95CF69CFC0E092CF1E3FF7
:1002B00071F480E0E82FF0E0EF59FF4F90819D1539
:1002C00020F04EE16CE7F0DED1CF8F5FF3CFE39407
:1002D0008CE38E1528F41F3F19F4C0918700C2509B
:1002E0008C2FD5DEC3CFC150D0CFCD1728F0CD1382
:1002F000D1CF8D2FCCDEF8DE8D2FC9DECD2FD0E013
:100300001092890075CF982F9F709093600082950E
:100310008F7014CFE199FECF8EBBE09A99278DB3F1
:100320000895262FE199FECF1CBA8EBB2DBB0FB6C8
:10033000F894E29AE19A0FBE01960895F894FFCFDF
:1003400008798D9AA2AAFF0000000003146EFFFF37
:10035000FF00036EFF00FFFDFEFC00000007388970
:06036000FF00005AFF003F
:00000001FF
