:100000000EC026C025C024C023C022C021C020C0ED
:100010001FC01EC01DC01CC01BC01AC019C01124A7
:100020001FBECFEDCDBF10E0A0E6B0E0E4E7F3E007
:1000300002C005900D92A238B107D9F720E0A2E8DE
:10004000B0E001C01D92A338B207E1F76BD090C1B8
:10005000D7CF20E23EE4815020F0F9013197F1F74B
:10006000FACF089584E6F5CF1CBA8EBB6DBBE29A39
:10007000E19AE199FECF08958EBBE09A8DB3089581
:10008000CF93682FC09182008091600082FF05C0ED
:10009000683018F487E0861B682F81E08C0F8D771D
:1000A000809382006095E0DF6FEF8C2FCF91DCCFE3
:1000B0006091600060958EE7D7CF1F93CF93DF9359
:1000C000C82FD62F142FCC2361F018BD19BC8D2F4B
:1000D000C0DF18BC19BC8D2FBCDF8D2FBADFC1501B
:1000E000F2CFDF91CF911F91089518BC19BC85B74D
:1000F000877E806185BF85B7806285BF889585B71B
:100100008F7D85BF089580918300813051F080916B
:10011000600084FF06C0A6DFA5DFA4DF81E0809336
:1001200083000895A39A83EA87B986EC86B9369945
:10013000FECF369A3699FECFD5B1B99AB89A81EAF0
:100140008ABD91E093BFBB9AC39AA29A87B986EC05
:1001500086B93699FECF369A3699FECF85B1893762
:1001600028F44EE165E083E0A8DFBFDF8EE784DF9F
:10017000809585FD05C0882319F08093600004C038
:1001800081E88093600094DF109282008091820069
:100190008E3750F471DFC82FC09539F480918200FA
:1001A0008F5F80938200F2CFC0E08091600080FD7D
:1001B00002C021E001C022E0D03A20F0D63E48F44F
:1001C00083FD07C01092840081FFC0E0109283007D
:1001D00025C090918300992311F084FD1FC0D63E65
:1001E00090F410928400CC3011F4C0E017C09FEF5F
:1001F0009C0F973020F4C21BCD30B8F70FC0C83029
:1002000060F0C20F0BC0909184009F5F9F7190932C
:100210008400C20FC83048F701C0C8E082FF05C0A3
:10022000C83018F487E08C1BC82FEC2FF0E0EC5896
:10023000FF4FD0818C2F24DF10E0F12C369A3699B5
:10024000FECFE5B080E78E1520F11F5F183010F16A
:100250001FEF1C0FC83010F0C12FFACFEC2FF0E0C9
:10026000EC58FF4F80818111F7CFC11103C018BC3A
:1002700019BC3BDFC12F812F03DF812F90E0FC01F0
:10028000E959FF4F2081FC01EC58FF4F808188BD68
:1002900029BD10E080918400803108F1E3DE1092E6
:1002A0008400C1E001E04EE16CE08C2F06DF82E3C8
:1002B000D0DE80916000802780936000F9DE44E109
:1002C00061E080E3FADE8091600080278093600027
:1002D000EFDEC8DE000FCF5FC73029F7C0E0DE3F9A
:1002E00090F4DC3FA0F4DB3F49F54FEF6AE083E098
:1002F000E4DE84E1AEDE4FEF64E183E0DEDE4FEF6B
:100300006AE083E019C0DE3FC9F480E00AC04FEF25
:1003100062E084E0D2DEDC3F41F518BC8FEF89BD9E
:1003200022C0E82FF0E0EF59FF4F90819E1510F4A6
:100330008F5FF7CF4EE16CE0C0DE16C0F394DF3F75
:1003400031F484E18F1518F486E09ADEC6E08C2F34
:1003500090E0FC01E959FF4F2081FC01EC58FF4F70
:10036000808188BD29BDCFDE7DDE1092840066CFFE
:04037000F894FFCF2F
:1003740081798D9AA2AAFF03146EFFFFFFFF00008C
:100384000000000000000007385A89FFFEFFFDFC52
:02039400FB006C
:00000001FF
