:1000000009C021C020C01FC01EC01DC01CC01BC015
:100010001AC019C011241FBECFE9CDBF10E0A0E661
:10002000B0E0E6E5F3E002C005900D92A638B10716
:10003000D9F720E0A6E8B0E001C01D92A938B207C8
:10004000E1F76AD086C1DCCF26EB33E0019708F4F4
:100050000895F9013197F1F7F9CF88EE93E0F4CFE5
:10006000CF93C091860091E09C0F9F729093860081
:10007000682F6295607F80916000682B6095892F62
:1000800090E05AD16FEF8C2F90E0CF9155C1A29A9A
:1000900081E687B986EC86B90895282F30E0F9010A
:1000A000E959FF4F90812A583F4FF901208129BD1E
:1000B00096BFD6CF0F931F93CF93DF93182F042FA4
:1000C000C62FD0E0111105C0DF91CF911F910F9184
:1000D000089509BD16BECE01B7DF19BC16BECE010C
:1000E000B3DFCE01B1DF1150EDCF369A3699FECF96
:1000F00085B108954EE162E383E0DCDF19BC16BEF2
:1001000085B7877E806185BF85B7806285BF88950A
:1001100085B78F7D85BF0895A39A83E687B986EC5E
:1001200086B93699FECF369A3699FECFD5B1B99AAF
:10013000B89A81EA8FBD81E083BF10928600C0919A
:100140008600C03318F184E02091600020FD28C0B3
:1001500094E0909388009AE09093870022FD25C058
:10016000C091880091E0D73E20F1209189002F5F57
:100170002F7120938900890F90918700981778F14B
:1001800090918800891758F1C82F29C08C2F90E0D2
:10019000CCD0809509F0C2C0CF5FC0938600CFCF8E
:1001A0009BE0909388009EE0D7CFC09187009FEF9F
:1001B000DACF10928900D13A08F477C023FF75C0D6
:1001C000833069F020918700281708F469C0C09136
:1001D0008800C81708F064C0891B2817A8F68C2F60
:1001E0003FDFBB9AC39A53DF80DF813708F062C0DC
:1001F00081DFD0E0E12C79DFD82EEC2FF0E0EA5857
:10020000FF4F108180918900803130F126DF1092FC
:100210008900C091880001E0FF24F3944EE16CE76F
:10022000802F48DF82E390E00FDF809160008F2510
:10023000809360008C2F14DF44E16FE080E33ADFAD
:10024000809160008F25809360008C2F09DF05DF8F
:10025000FF0C0F5F053011F784E0810F823090F5BD
:100260004FEF69E184E026DF1C3F21F419BC8FEFDA
:1002700086BFF3DE80E78D1508F44CC0DF5FDF300A
:1002800008F449C0D0918800EC2FF0E0E958FF4F06
:10029000DC17B0F58291811131C0DFEFDC0F37C080
:1002A000833030F4C1E0C80F9ACF21FF98CF6CCFD4
:1002B000C0E095CF893708F09CCF4EE162E382E041
:1002C000F9DE97CF1E3F71F480E0E82FF0E0EF59A0
:1002D000FF4F90819D1520F04EE16CE7EBDEC9CF1A
:1002E0008F5FF3CFE3948CE38E1528F41F3F19F44E
:1002F000C0918700C2508C2FD0DEBBCFC150C8CF79
:10030000CD1728F0CD13C9CF8D2FC7DEF3DE8D2F8B
:10031000C4DECD2FD0E0109289006DCF982F9F7052
:100320009093600082958F700FCFE199FECF8EBBC6
:10033000E09A99278DB30895262FE199FECF1CBA34
:100340008EBB2DBB0FB6F894E29AE19A0FBE0196D0
:060350000895F894FFCFB0
:1003560008798D9AA2AAFF0000000003146EFFFF21
:10036600FF00036EFF00FFFDFEFC0000000738895A
:06037600FF00005AFF0029
:00000001FF
