:100000000EC01EC01DC01CC01BC01AC019C018C025
:1000100017C016C015C014C013C012C011C01124DF
:100020001FBECFEDCDBF10E0A0E6B0E0E0EBF3E007
:1000300002C005900D92A238B107D9F78BD0B6C196
:10004000DFCF20ED37E0815020F0F9013197F1F753
:10005000FACF089528E33AE4815020F0F90131976E
:10006000F1F7FACF089584E6F5CF1CBA8EBB6DBBCD
:10007000E29AE19AE199FECF0895CF93DF93D82FCA
:10008000C42F63FF05C0883018F487E08D1BD82F7C
:100090006FEF8C2FEADFCF5FCD776D2F60958C2FC0
:1000A000E4DF8C2FDF91CF910895682F8EE7DDCFAD
:1000B000682F60958FE7D9CF369A3699FECF85B1F4
:1000C00008951F93CF93DF93C82FD62F142F19BCF9
:1000D000CC2351F018BD8D2FBDDF18BC8D2FBADF9A
:1000E0008D2FB8DFC150F4CFDF91CF911F910895CC
:1000F00085B7877E806185BF18BC19BC85B78062D3
:1001000085BF889585B78F7D85BF08951F93CF9351
:10011000DF93A29A8FEA87B986EC86B93699FECF2B
:1001200010E1C0E0D0E0C8DFC80FD11D1150D9F7F1
:10013000CE0124E0969587952A95E1F7DF91CF913E
:100140001F910895A29A81EA87B986EC86B93699FB
:10015000FECFB2CFA39A83EA87B986EC86B93699E7
:10016000FECFAADF182FB99AB89A81EA8ABD81E03A
:1001700083BFBB9AC39AE6DFC82F893738F44EE1B4
:1001800065E083E09EDFC13708F4B2DF8EE78EBB07
:10019000E09ADDB28EE48D1510F08FE4D82E8FE753
:1001A0008EBBE09ADDB3D095D7FD03C080E980DF38
:1001B000D0E9D4FF02C092E001C091E080E08EBBA4
:1001C000E09ACDB3C09519F48F5F8E37C1F72D2F0C
:1001D0002170103A20F0163E58F4D5FD09C0109257
:1001E0008300D1FD02C0CD2FC470109282002BC0BD
:1001F00080918200882311F0D6FD25C0163E80F440
:1002000021110EC08D2F8470CD3010F0C82F20C06A
:10021000C817B9F0C83010F4C91B1AC0CF5F18C096
:10022000809183008F5F8F7180938300C90FC830E6
:1002300010F0CD2FC470D3FF06C087E08C1BC82FF1
:1002400002C0C8E005C0222319F0C63008F0C5E09E
:1002500040E06D2F8C2F11DFF82E00E0E12C9D2F58
:100260009074C92EBB24B3946DDFA82E4FDF90E7A6
:100270009A1510F48D1578F00F5F083068F0C730CC
:1002800020F4C15019F434DF01C0C6E04F2D6D2FAA
:100290008C2FF3DEF82E00E080918300803168F12E
:1002A000E2DE1092830011E0C1E04EE16CE0812FAC
:1002B00008DF85E0CFDEDC278D2FFADE44E161E048
:1002C00080E3FFDEDC278D2FF3DECDDECC0F1F5F5A
:1002D000C13858F34EE16CE088E0F3DE8FEFE5DEE5
:1002E00088ECB8DECFEFC8BD19BC10DFDEDEBBDEA8
:1002F0004FEF6CE082E0E5DEF6CFEC2FF0E0EC585B
:10030000FF4F10811E3FA0F41C3F40F51A3F01F142
:100310001B3F51F54FEF6AE083E0D3DE84E19ADEC4
:100320004FEF64E183E0CDDE4FEF6AE083E00EC083
:100330001E3FD1F480E0E82FF0E0E05AFF4F9081BB
:100340009A1510F48F5FF7CF4EE16CE0BADE29C04A
:100350004FEF6AE081E0B5DE8FEF7CDE4FEF62E0C9
:1003600084E0AFDE1D3FF1F01F3F49F484E18E15BC
:1003700030F44F2D6D2F86E080DEF82EC6E08C2FF6
:1003800090E0FC01EA59FF4F2081FC01EC58FF4F3F
:10039000808188BD29BDCC2021F08FEF5BDEB0923B
:1003A000820061DEE394109283005ECFF894FFCF69
:1003B000798D9AA2AAFF03146EFFFFFFFF000000D1
:1003C0000000000000000007385A89FFFEFFFDFC16
:0203D000FBFA36
:00000001FF
