:100000000EC028C027C026C025C024C023C022C0DF
:1000100021C020C01FC01EC01DC01CC01BC0112499
:100020001FBECFE5D2E0DEBFCDBF10E0A0E6B0E05E
:10003000EAECF3E002C005900D92A638B107D9F7BB
:1000400020E0A6E8B0E001C01D92AA38B207E1F7AF
:100050007FD0B9C1D5CF20ED37E0019708F40895DE
:10006000F9013197F1F7F9CF88EE93E0F4CFCF9310
:10007000DF93C0918600D09187009E012F5F3F4F94
:100080002F7731703093870020938600682F60951A
:10009000C9018BD16FEFCE01DF91CF9186C1682F5F
:1000A00060958EEF91E081C1A29A81EA87B986ECD2
:1000B00086B90895282F30E0F901E959FF4F908162
:1000C0002A583F4FF901208128BD99BDD0CF0F9309
:1000D0001F93CF93DF93182F042FC62FD0E0111159
:1000E00005C0DF91CF911F910F91089508BD19BCF4
:1000F000CE01B1DF18BC19BCCE01ADDFCE01ABDF44
:100100001150EDCF369A3699FECF85B108954EE164
:1001100062E383E0DCDF18BC19BC85B7877E8061B1
:1001200085BF85B7806285BF889585B78F7D85BF80
:10013000089580918A00813051F08091600084FFA1
:1001400006C092DF91DF90DF81E080938A000895FE
:10015000A39A83EA87B986EC86B93699FECF369A98
:100160003699FECF15B1B99AB89A81EA8ABD81E075
:1001700083BF8EEF91E011D180958093600085FD63
:1001800002C0811104C084E88093600088DF10926F
:10019000870010928600C0918600D0918700C038F9
:1001A00081E0D80708F469C080E02091600020FD5C
:1001B0006FC094E0909389009AE09093880022FDAC
:1001C0006CC0C091890091E0103A28F0163E08F00A
:1001D00068C023FD66C010928B0021FDC82F1092CD
:1001E0008A008C2F44DFBB9AC39A5EDF8BDF813796
:1001F00008F08BC08CDFD0E0E12C84DFD82EEC2F10
:10020000F0E0EA58FF4F108180918B00803120F19F
:100210002BDF10928B00C091890001E0FF24F39442
:100220004EE16CE7802F53DF82E390E014DF809192
:1002300060008F258093600032DF44E16FE080E34F
:1002400046DF809160008F258093600028DF0CDFFF
:10025000FF0C0F5F073021F784E0810F823008F038
:100260005CC04FEF69E184E032DF1C3F09F063C0FE
:1002700018BC8FEF89BD5DDF5DC0CE018ED080954B
:1002800009F093CF2196D0938700C093860083CF47
:100290009BE0909389009EE090CFC09188009FEFF3
:1002A00093CF30918A00332311F024FD13C0163E02
:1002B000C0F410928B00833009F493CF2091880012
:1002C000281750F0C0918900C81730F4891B2817EF
:1002D00008F487CFC82F85CF8330A8F4C1E0C80FBA
:1002E00080CF20918B002F5F2F7120938B00890F7F
:1002F00090918800981708F474CF9091890089171D
:1003000008F46FCFE7CFC0E06CCF893708F073CF28
:100310004EE162E382E0DBDE6ECF1E3F11F580E04E
:10032000E82FF0E0EF59FF4F90819D15C0F04EE1AE
:100330006CE7CDDE99DE80E78D1558F1DF5FDF30A9
:1003400048F1D0918900EC2FF0E0E958FF4FDC171D
:10035000B0F48291811111C0DFEFDC0F17C08F5F05
:10036000DFCFE3948CE38E1528F41F3F19F4C0917E
:100370008800C2508C2F9EDE7ECFC150E8CFCD17B3
:1003800028F0CD13E9CF8D2F95DEC1DE8D2F92DEC3
:10039000CD2FD0E010928B0030CFE199FECF9FBBE4
:1003A0008EBBE09A99278DB30895262FE199FECF51
:1003B0001CBA9FBB8EBB2DBB0FB6F894E29AE19A94
:0A03C0000FBE01960895F894FFCFD8
:1003CA0084798D9AA2AAFF0000000003146EFFFF31
:1003DA00FF00036EFF00FFFDFEFC000000073889E6
:0603EA00FF00005AFF00B5
:00000001FF
