:1000000009C021C020C01FC01EC01DC01CC01BC015
:100010001AC019C011241FBECFE9CDBF10E0A0E661
:10002000B0E0EAE7F3E002C005900D92A238B10714
:10003000D9F720E0A2E8B0E001C01D92A338B207D2
:10004000E1F771D098C1DCCF26EB33E0019720F0C7
:10005000F9013197F1F7FACF089588EE93E0F4CFE4
:10006000CF93C091820091E09C0F9F729093820089
:10007000682F6095892F90E071D16FEF8C2F90E001
:10008000CF916CC19091600092FF05C0883018F448
:1000900097E0981B892FE4CF6091600060958EE314
:1000A00090E05CC10F931F93CF93DF93182F042F21
:1000B000C62FD0E0112361F009BD16BECE01C4DF0A
:1000C00019BC16BECE01C0DFCE01BEDF1150F2CF8B
:1000D000DF91CF911F910F910895369A3699FECFF7
:1000E00085B108954EE162E383E0DCDF19BC16BE02
:1000F00085B7877E806185BF85B7806285BF88951B
:1001000085B78F7D85BF089580918300813051F040
:100110008091600084FF06C0A0DF9FDF9EDF81E04A
:10012000809383000895A39A83E687B986EC86B905
:100130003699FECF369A3699FECF15B1B99AB89A4C
:1001400081EA8FBD81E083BF8EE390E000D180958E
:100150008093600085FD02C0811104C081E8809316
:1001600060009ADF10928200D0918200D03350F468
:100170008D2F90E0ECD0C82FC09529F4DF5FD0938D
:100180008200F2CFC0E08091600080FD02C091E06B
:1001900001C092E0103A20F0163E48F483FD07C0FB
:1001A0001092840081FFC0E01092830025C020914E
:1001B0008300222311F084FD1FC0163E90F410929C
:1001C0008400CC3011F4C0E017C08FEF8C0F873063
:1001D00020F4C91BCD30B8F70FC0C83060F0C90F8C
:1001E0000BC0809184008F5F8F7180938400C90F52
:1001F000C83048F701C0C8E0BB9AC39AA29A81E60A
:1002000087B986EC86B969DF813710F46BDF06C0E9
:10021000893720F44EE162E382E044DF80916000A0
:1002200082FF05C0C83018F487E08C1BC82FEC2F64
:10023000F0E0EC58FF4FD0818C2F24DF10E0E12C50
:100240004CDFD82E809184008031D0F4DE3FA0F4C2
:10025000DC3FC8F5DB3F09F04DC04FEF64E683E0BB
:1002600021DF88EC90E0F0DE4FEF68EC83E01ADFEE
:100270004FEF64E683E03CC0DE3FE1F580E02DC057
:10028000ECDE1092840001E0FF24F3944EE16CE771
:10029000802F08DF82E390E0D7DE809160008F2519
:1002A00080936000F9DE44E16FE080E3FBDE809143
:1002B00060008F2580936000EFDECFDEFF0C0F5FC4
:1002C000073021F7C3CF4FEF69E184E0EBDEDC3F7D
:1002D00041F519BC8FEF86BF22C0E82FF0E0EF593F
:1002E000FF4F90819D1510F48F5FF7CF4EE16CE7C3
:1002F000D9DE16C0E39484E18E1528F4DF3F19F4AB
:1003000085E0C0DEC5E08C2F90E0FC01E959FF4F8D
:100310002081FC01EC58FF4F808189BD26BFF4DEAF
:100320009CDE80E78D1578F01F5F1F3068F080E05D
:10033000A9DE19BC16BED6DE8FEFA4DE19BC16BE30
:1003400010E0CFEF01C010E01092840079CFE19966
:10035000FECF8EBBE09A99278DB30895262FE199A1
:10036000FECF1CBA8EBB2DBB0FB6F894E29AE19A71
:0A0370000FBE01960895F894FFCF28
:10037A0081798D9AA2AAFF03146EFFFFFFFF000086
:10038A000000000000000007385A89FFFEFFFDFC4C
:02039A00FB0066
:00000001FF
