:100000000EC028C027C026C025C024C023C022C0DF
:1000100021C020C01FC01EC01DC01CC01BC0112499
:100020001FBECFE5D2E0DEBFCDBF10E0A0E6B0E05E
:10003000E8EAF3E002C005900D92A238B107D9F7C3
:1000400020E0A2E8B0E001C01D92A438B207E1F7B9
:1000500077D0A8C1D5CF20ED37E0019720F0F90186
:100060003197F1F7FACF089588EE93E0F4CFCF936C
:10007000DF93C0918200D09183009E012F5F3F4F9C
:100080002F7731703093830020938200682F609522
:10009000C9017AD16FEFCE01DF91CF9175C19091F7
:1000A000600092FF05C0883018F497E0981B892FF4
:1000B000DECF6091600060958EEF91E065C10F9397
:1000C0001F93CF93DF93182F042FC62FD0E0112357
:1000D00061F008BD19BCCE01BEDF18BC19BCCE0151
:1000E000BADFCE01B8DF1150F2CFDF91CF911F916F
:1000F0000F910895369A3699FECF85B108954EE155
:1001000062E383E0DCDF18BC19BC85B7877E8061C1
:1001100085BF85B7806285BF889585B78F7D85BF90
:10012000089580918400813051F08091600084FFB7
:1001300006C09ADF99DF98DF81E0809384000895FC
:10014000A39A83EA87B986EC86B93699FECF369AA8
:100150003699FECFD5B1B99AB89A81EA8ABD81E0C5
:1001600083BF8EEF91E008D180958093600085FD7C
:1001700002C0811104C081E8809360009ADF109270
:100180008300109282000091820010918300003859
:1001900081E0180760F4C801EFD0C82FC09541F482
:1001A0000F5F1F4F1093830000938200ECCFC0E0DD
:1001B0008091600080FD02C091E001C092E0D03AE1
:1001C00020F0D63E48F483FD07C01092850081FFE1
:1001D000C0E01092840025C020918400222311F0F9
:1001E00084FD1FC0D63E90F410928500CC3011F4EF
:1001F000C0E017C08FEF8C0F873020F4C91BCD30C3
:10020000B8F70FC0C83060F0C90F0BC080918500EF
:100210008F5F8F7180938500C90FC83048F701C088
:10022000C8E0BB9AC39AA29A81EA87B986EC86B9DC
:1002300061DF813710F463DF06C0893720F44EE1B7
:1002400062E382E03CDF8091600082FF05C0C8303D
:1002500018F487E08C1BC82FEC2FF0E0EC58FF4F10
:10026000D0818C2F1CDF10E0E12C44DFD82E809150
:1002700085008031D0F4DE3FA0F4DC3FC8F5DB3FE1
:1002800009F04DC04FEF64E683E019DF88EC90E0A1
:10029000E2DE4FEF68EC83E012DF4FEF64E683E0CD
:1002A0003CC0DE3FE1F580E02DC0DEDE109285002F
:1002B00001E0FF24F3944EE16CE7802F00DF82E33E
:1002C00090E0C9DE809160008F2580936000F1DEB0
:1002D00044E16FE080E3F3DE809160008F2580933E
:1002E0006000E7DEC1DEFF0C0F5F073021F7C3CFF0
:1002F0004FEF69E184E0E3DEDC3F41F518BC8FEFAE
:1003000089BD22C0E82FF0E0EF59FF4F90819D1585
:1003100010F48F5FF7CF4EE16CE7D1DE16C0E394A7
:1003200084E18E1528F4DF3F19F485E0B8DEC5E0DE
:100330008C2F90E0FC01E959FF4F2081FC01EC5823
:10034000FF4F808188BD29BDECDE8EDE80E78D15F4
:1003500078F01F5F1F3068F080E0A1DE18BC19BC88
:10036000CEDE8FEF9CDE18BC19BC10E0CFEF01C0D1
:1003700010E01092850079CFE199FECF9FBB8EBB34
:10038000E09A99278DB30895262FE199FECF1CBAE4
:100390009FBB8EBB2DBB0FB6F894E29AE19A0FBEBD
:0803A00001960895F894FFCFC7
:1003A80081798D9AA2AAFF03146EFFFFFFFF000058
:1003B8000000000000000007385A89FFFEFFFDFC1E
:0203C800FB0038
:00000001FF
