:1000000009C021C020C01FC01EC01DC01CC01BC015
:100010001AC019C011241FBECFE9CDBF10E0A0E661
:10002000B0E0ECE6F3E002C005900D92A238B10713
:10003000D9F720E0A2E8B0E001C01D92A338B207D2
:10004000E1F76BD091C1DCCF2CE135E2815020F09B
:10005000F9013197F1F7FACF089584E6F5CF1CBA8C
:100060008EBB6DBBE29AE19AE199FECF08958EBBFB
:10007000E09A8DB30895CF93682FC091820080914C
:10008000600082FF05C0683018F487E0861B682F87
:1000900081E08C0F8D73809382006095E0DF6FEFBD
:1000A0008C2FCF91DCCF6091600060958EE3D7CF2D
:1000B0001F93CF93DF93C82FD62F142FCC2361F03B
:1000C00019BD16BE8D2FC0DF19BC16BE8D2FBCDF2B
:1000D0008D2FBADFC150F2CFDF91CF911F910895DC
:1000E00019BC16BE85B7877E806185BF85B78062E3
:1000F00085BF889585B78F7D85BF089580918300E2
:10010000813051F08091600084FF06C0A6DFA5DF3A
:10011000A4DF81E0809383000895A39A83E687B9E2
:1001200086EC86B93699FECF369A3699FECFD5B190
:10013000B99AB89A81EA8FBD81E083BFBB9AC39A0E
:10014000A29A81E687B986EC86B93699FECF369AAF
:100150003699FECF85B1893728F44EE165E083E01A
:10016000A7DFBEDF8EE383DF809585FD05C0882392
:1001700019F08093600004C081E88093600093DFF1
:1001800010928200809182008E3350F470DFC82F6D
:10019000C09539F4809182008F5F80938200F2CF06
:1001A000C0E08091600080FD02C021E001C022E03B
:1001B000D03A20F0D63E48F483FD07C01092840068
:1001C00081FFC0E01092830025C0909183009923A5
:1001D00011F084FD1FC0D63E90F410928400CC3004
:1001E00011F4C0E017C09FEF9C0F973020F4C21BA2
:1001F000CD30B8F70FC0C83060F0C20F0BC090917F
:1002000084009F5F9F7190938400C20FC83048F7AD
:1002100001C0C8E082FF05C0C83018F487E08C1B1D
:10022000C82FEC2FF0E0EC58FF4FD0818C2F23DF4C
:1002300010E0F12C369A3699FECFE5B080E78E15A6
:1002400020F11F5F183010F11FEF1C0FC83010F0A5
:10025000C12FFACFEC2FF0E0EC58FF4F80818111D5
:10026000F7CFC11103C019BC16BE3ADFC12F812FD1
:1002700002DF812F90E0FC01E959FF4F2081FC0152
:10028000EC58FF4F808189BD26BF10E0809184002B
:10029000803108F1E2DE10928400C1E001E04EE11D
:1002A0006CE08C2F05DF82E3CFDE80916000802739
:1002B00080936000F8DE44E161E080E3F9DE809144
:1002C0006000802780936000EEDEC7DE000FCF5F06
:1002D000C73029F7C0E0DE3F90F4DC3FA0F4DB3FFD
:1002E00049F54FEF6AE083E0E3DE84E1ADDE4FEFF6
:1002F00064E183E0DDDE4FEF6AE083E019C0DE3FBA
:10030000C9F480E00AC04FEF62E084E0D1DEDC3F58
:1003100041F519BC8FEF86BF22C0E82FF0E0EF59FE
:10032000FF4F90819E1510F48F5FF7CF4EE16CE088
:10033000BFDE16C0F394DF3F31F484E18F1518F46B
:1003400086E099DEC6E08C2F90E0FC01E959FF4F72
:100350002081FC01EC58FF4F808189BD26BFCEDE95
:0C0360007CDE1092840066CFF894FFCF82
:10036C0081798D9AA2AAFF03146EFFFFFFFF000094
:10037C000000000000000007385A89FFFEFFFDFC5A
:02038C00FB0074
:00000001FF
